{
  "contractName": "KittyCore",
  "abi": [
    {
      "anonymous": false,
      "inputs": [
        {
          "indexed": true,
          "internalType": "address",
          "name": "owner",
          "type": "address"
        },
        {
          "indexed": true,
          "internalType": "address",
          "name": "approved",
          "type": "address"
        },
        {
          "indexed": true,
          "internalType": "uint256",
          "name": "tokenId",
          "type": "uint256"
        }
      ],
      "name": "Approval",
      "type": "event"
    },
    {
      "anonymous": false,
      "inputs": [
        {
          "indexed": true,
          "internalType": "address",
          "name": "owner",
          "type": "address"
        },
        {
          "indexed": true,
          "internalType": "address",
          "name": "operator",
          "type": "address"
        },
        {
          "indexed": false,
          "internalType": "bool",
          "name": "approved",
          "type": "bool"
        }
      ],
      "name": "ApprovalForAll",
      "type": "event"
    },
    {
      "anonymous": false,
      "inputs": [
        {
          "indexed": false,
          "internalType": "address",
          "name": "owner",
          "type": "address"
        },
        {
          "indexed": false,
          "internalType": "uint256",
          "name": "kittyId",
          "type": "uint256"
        },
        {
          "indexed": false,
          "internalType": "uint256",
          "name": "momId",
          "type": "uint256"
        },
        {
          "indexed": false,
          "internalType": "uint256",
          "name": "dadId",
          "type": "uint256"
        },
        {
          "indexed": false,
          "internalType": "uint256",
          "name": "genes",
          "type": "uint256"
        }
      ],
      "name": "Birth",
      "type": "event"
    },
    {
      "anonymous": false,
      "inputs": [
        {
          "indexed": true,
          "internalType": "address",
          "name": "previousOwner",
          "type": "address"
        },
        {
          "indexed": true,
          "internalType": "address",
          "name": "newOwner",
          "type": "address"
        }
      ],
      "name": "OwnershipTransferred",
      "type": "event"
    },
    {
      "anonymous": false,
      "inputs": [
        {
          "indexed": true,
          "internalType": "address",
          "name": "from",
          "type": "address"
        },
        {
          "indexed": true,
          "internalType": "address",
          "name": "to",
          "type": "address"
        },
        {
          "indexed": true,
          "internalType": "uint256",
          "name": "tokenId",
          "type": "uint256"
        }
      ],
      "name": "Transfer",
      "type": "event"
    },
    {
      "constant": true,
      "inputs": [],
      "name": "CREATION_LIMIT_GEN0",
      "outputs": [
        {
          "internalType": "uint256",
          "name": "",
          "type": "uint256"
        }
      ],
      "payable": false,
      "stateMutability": "view",
      "type": "function"
    },
    {
      "constant": false,
      "inputs": [
        {
          "internalType": "address",
          "name": "_to",
          "type": "address"
        },
        {
          "internalType": "uint256",
          "name": "_kittyId",
          "type": "uint256"
        }
      ],
      "name": "approve",
      "outputs": [],
      "payable": false,
      "stateMutability": "nonpayable",
      "type": "function"
    },
    {
      "constant": true,
      "inputs": [
        {
          "internalType": "address",
          "name": "_owner",
          "type": "address"
        }
      ],
      "name": "balanceOf",
      "outputs": [
        {
          "internalType": "uint256",
          "name": "",
          "type": "uint256"
        }
      ],
      "payable": false,
      "stateMutability": "view",
      "type": "function"
    },
    {
      "constant": false,
      "inputs": [
        {
          "internalType": "uint256",
          "name": "_momId",
          "type": "uint256"
        },
        {
          "internalType": "uint256",
          "name": "_dadId",
          "type": "uint256"
        }
      ],
      "name": "breed",
      "outputs": [
        {
          "internalType": "uint256",
          "name": "",
          "type": "uint256"
        }
      ],
      "payable": false,
      "stateMutability": "nonpayable",
      "type": "function"
    },
    {
      "constant": false,
      "inputs": [
        {
          "internalType": "uint256",
          "name": "_genes",
          "type": "uint256"
        }
      ],
      "name": "createGen0Kitty",
      "outputs": [
        {
          "internalType": "uint256",
          "name": "",
          "type": "uint256"
        }
      ],
      "payable": false,
      "stateMutability": "nonpayable",
      "type": "function"
    },
    {
      "constant": true,
      "inputs": [],
      "name": "gen0Count",
      "outputs": [
        {
          "internalType": "uint256",
          "name": "",
          "type": "uint256"
        }
      ],
      "payable": false,
      "stateMutability": "view",
      "type": "function"
    },
    {
      "constant": true,
      "inputs": [
        {
          "internalType": "uint256",
          "name": "_kittyId",
          "type": "uint256"
        }
      ],
      "name": "getApproved",
      "outputs": [
        {
          "internalType": "address",
          "name": "",
          "type": "address"
        }
      ],
      "payable": false,
      "stateMutability": "view",
      "type": "function"
    },
    {
      "constant": true,
      "inputs": [
        {
          "internalType": "uint256",
          "name": "_kittyId",
          "type": "uint256"
        }
      ],
      "name": "getChildren",
      "outputs": [
        {
          "internalType": "uint256[]",
          "name": "",
          "type": "uint256[]"
        }
      ],
      "payable": false,
      "stateMutability": "view",
      "type": "function"
    },
    {
      "constant": true,
      "inputs": [
        {
          "internalType": "address",
          "name": "_owner",
          "type": "address"
        },
        {
          "internalType": "address",
          "name": "_operator",
          "type": "address"
        }
      ],
      "name": "isApprovedForAll",
      "outputs": [
        {
          "internalType": "bool",
          "name": "",
          "type": "bool"
        }
      ],
      "payable": false,
      "stateMutability": "view",
      "type": "function"
    },
    {
      "constant": true,
      "inputs": [],
      "name": "isOwner",
      "outputs": [
        {
          "internalType": "bool",
          "name": "",
          "type": "bool"
        }
      ],
      "payable": false,
      "stateMutability": "view",
      "type": "function"
    },
    {
      "constant": true,
      "inputs": [],
      "name": "name",
      "outputs": [
        {
          "internalType": "string",
          "name": "",
          "type": "string"
        }
      ],
      "payable": false,
      "stateMutability": "view",
      "type": "function"
    },
    {
      "constant": true,
      "inputs": [],
      "name": "owner",
      "outputs": [
        {
          "internalType": "address",
          "name": "",
          "type": "address"
        }
      ],
      "payable": false,
      "stateMutability": "view",
      "type": "function"
    },
    {
      "constant": true,
      "inputs": [
        {
          "internalType": "uint256",
          "name": "_kittyId",
          "type": "uint256"
        }
      ],
      "name": "ownerOf",
      "outputs": [
        {
          "internalType": "address",
          "name": "",
          "type": "address"
        }
      ],
      "payable": false,
      "stateMutability": "view",
      "type": "function"
    },
    {
      "constant": false,
      "inputs": [],
      "name": "renounceOwnership",
      "outputs": [],
      "payable": false,
      "stateMutability": "nonpayable",
      "type": "function"
    },
    {
      "constant": false,
      "inputs": [
        {
          "internalType": "address",
          "name": "_from",
          "type": "address"
        },
        {
          "internalType": "address",
          "name": "_to",
          "type": "address"
        },
        {
          "internalType": "uint256",
          "name": "_kittyId",
          "type": "uint256"
        }
      ],
      "name": "safeTransferFrom",
      "outputs": [],
      "payable": false,
      "stateMutability": "nonpayable",
      "type": "function"
    },
    {
      "constant": false,
      "inputs": [
        {
          "internalType": "address",
          "name": "_from",
          "type": "address"
        },
        {
          "internalType": "address",
          "name": "_to",
          "type": "address"
        },
        {
          "internalType": "uint256",
          "name": "_kittyId",
          "type": "uint256"
        },
        {
          "internalType": "bytes",
          "name": "_data",
          "type": "bytes"
        }
      ],
      "name": "safeTransferFrom",
      "outputs": [],
      "payable": false,
      "stateMutability": "nonpayable",
      "type": "function"
    },
    {
      "constant": false,
      "inputs": [
        {
          "internalType": "address",
          "name": "_operator",
          "type": "address"
        },
        {
          "internalType": "bool",
          "name": "_approved",
          "type": "bool"
        }
      ],
      "name": "setApprovalForAll",
      "outputs": [],
      "payable": false,
      "stateMutability": "nonpayable",
      "type": "function"
    },
    {
      "constant": true,
      "inputs": [
        {
          "internalType": "bytes4",
          "name": "_interfaceId",
          "type": "bytes4"
        }
      ],
      "name": "supportsInterface",
      "outputs": [
        {
          "internalType": "bool",
          "name": "",
          "type": "bool"
        }
      ],
      "payable": false,
      "stateMutability": "view",
      "type": "function"
    },
    {
      "constant": true,
      "inputs": [],
      "name": "symbol",
      "outputs": [
        {
          "internalType": "string",
          "name": "",
          "type": "string"
        }
      ],
      "payable": false,
      "stateMutability": "view",
      "type": "function"
    },
    {
      "constant": true,
      "inputs": [
        {
          "internalType": "uint256",
          "name": "_index",
          "type": "uint256"
        }
      ],
      "name": "tokenByIndex",
      "outputs": [
        {
          "internalType": "uint256",
          "name": "",
          "type": "uint256"
        }
      ],
      "payable": false,
      "stateMutability": "view",
      "type": "function"
    },
    {
      "constant": true,
      "inputs": [
        {
          "internalType": "address",
          "name": "_owner",
          "type": "address"
        },
        {
          "internalType": "uint256",
          "name": "_index",
          "type": "uint256"
        }
      ],
      "name": "tokenOfOwnerByIndex",
      "outputs": [
        {
          "internalType": "uint256",
          "name": "",
          "type": "uint256"
        }
      ],
      "payable": false,
      "stateMutability": "view",
      "type": "function"
    },
    {
      "constant": true,
      "inputs": [
        {
          "internalType": "address",
          "name": "_owner",
          "type": "address"
        }
      ],
      "name": "tokensOfOwner",
      "outputs": [
        {
          "internalType": "uint256[]",
          "name": "",
          "type": "uint256[]"
        }
      ],
      "payable": false,
      "stateMutability": "view",
      "type": "function"
    },
    {
      "constant": true,
      "inputs": [],
      "name": "totalSupply",
      "outputs": [
        {
          "internalType": "uint256",
          "name": "",
          "type": "uint256"
        }
      ],
      "payable": false,
      "stateMutability": "view",
      "type": "function"
    },
    {
      "constant": false,
      "inputs": [
        {
          "internalType": "address",
          "name": "_to",
          "type": "address"
        },
        {
          "internalType": "uint256",
          "name": "_kittyId",
          "type": "uint256"
        }
      ],
      "name": "transfer",
      "outputs": [],
      "payable": false,
      "stateMutability": "nonpayable",
      "type": "function"
    },
    {
      "constant": false,
      "inputs": [
        {
          "internalType": "address",
          "name": "_from",
          "type": "address"
        },
        {
          "internalType": "address",
          "name": "_to",
          "type": "address"
        },
        {
          "internalType": "uint256",
          "name": "_kittyId",
          "type": "uint256"
        }
      ],
      "name": "transferFrom",
      "outputs": [],
      "payable": false,
      "stateMutability": "nonpayable",
      "type": "function"
    },
    {
      "constant": false,
      "inputs": [
        {
          "internalType": "address",
          "name": "newOwner",
          "type": "address"
        }
      ],
      "name": "transferOwnership",
      "outputs": [],
      "payable": false,
      "stateMutability": "nonpayable",
      "type": "function"
    },
    {
      "constant": true,
      "inputs": [
        {
          "internalType": "uint256",
          "name": "_kittyId",
          "type": "uint256"
        }
      ],
      "name": "getKitty",
      "outputs": [
        {
          "internalType": "uint256",
          "name": "genes",
          "type": "uint256"
        },
        {
          "internalType": "uint256",
          "name": "birthTime",
          "type": "uint256"
        },
        {
          "internalType": "uint256",
          "name": "dadId",
          "type": "uint256"
        },
        {
          "internalType": "uint256",
          "name": "momId",
          "type": "uint256"
        },
        {
          "internalType": "uint256",
          "name": "generation",
          "type": "uint256"
        }
      ],
      "payable": false,
      "stateMutability": "view",
      "type": "function"
    }
  ],
  "bytecode": "0x6080604052336000806101000a81548173ffffffffffffffffffffffffffffffffffffffff021916908373ffffffffffffffffffffffffffffffffffffffff1602179055503373ffffffffffffffffffffffffffffffffffffffff16600073ffffffffffffffffffffffffffffffffffffffff167f8be0079c531659141344cd1fd0a4f28419497f9722a3daafe3b4186f6b6457e060405160405180910390a3612e4b806100ae6000396000f3fe608060405234801561001057600080fd5b50600436106101a95760003560e01c8063715018a6116100f9578063b30387a411610097578063d9ecad7b11610071578063d9ecad7b146109ec578063e985e9c514610a38578063e98b7f4d14610ab4578063f2fde38b14610b12576101a9565b8063b30387a4146108ab578063b4834330146108c9578063b88d4fde146108e7576101a9565b80638f32d59b116100d35780638f32d59b1461076857806395d89b411461078a578063a22cb4651461080d578063a9059cbb1461085d576101a9565b8063715018a61461067b5780638462151c146106855780638da5cb5b1461071e576101a9565b80632f745c59116101665780634bdb8ab5116101405780634bdb8ab5146105315780634f6ccce7146105735780636352211e146105b557806370a0823114610623576101a9565b80632f745c59146103de57806342842e0e1461044057806349ae8dc3146104ae576101a9565b806301ffc9a7146101ae57806306fdde0314610213578063081812fc14610296578063095ea7b31461030457806318160ddd1461035257806323b872dd14610370575b600080fd5b6101f9600480360360208110156101c457600080fd5b8101908080357bffffffffffffffffffffffffffffffffffffffffffffffffffffffff19169060200190929190505050610b56565b604051808215151515815260200191505060405180910390f35b61021b610bf6565b6040518080602001828103825283818151815260200191508051906020019080838360005b8381101561025b578082015181840152602081019050610240565b50505050905090810190601f1680156102885780820380516001836020036101000a031916815260200191505b509250505060405180910390f35b6102c2600480360360208110156102ac57600080fd5b8101908080359060200190929190505050610c2f565b604051808273ffffffffffffffffffffffffffffffffffffffff1673ffffffffffffffffffffffffffffffffffffffff16815260200191505060405180910390f35b6103506004803603604081101561031a57600080fd5b81019080803573ffffffffffffffffffffffffffffffffffffffff16906020019092919080359060200190929190505050610cca565b005b61035a610e8a565b6040518082815260200191505060405180910390f35b6103dc6004803603606081101561038657600080fd5b81019080803573ffffffffffffffffffffffffffffffffffffffff169060200190929190803573ffffffffffffffffffffffffffffffffffffffff16906020019092919080359060200190929190505050610e97565b005b61042a600480360360408110156103f457600080fd5b81019080803573ffffffffffffffffffffffffffffffffffffffff16906020019092919080359060200190929190505050610f9e565b6040518082815260200191505060405180910390f35b6104ac6004803603606081101561045657600080fd5b81019080803573ffffffffffffffffffffffffffffffffffffffff169060200190929190803573ffffffffffffffffffffffffffffffffffffffff16906020019092919080359060200190929190505050611041565b005b6104da600480360360208110156104c457600080fd5b8101908080359060200190929190505050611061565b6040518080602001828103825283818151815260200191508051906020019060200280838360005b8381101561051d578082015181840152602081019050610502565b505050509050019250505060405180910390f35b61055d6004803603602081101561054757600080fd5b81019080803590602001909291905050506110d1565b6040518082815260200191505060405180910390f35b61059f6004803603602081101561058957600080fd5b81019080803590602001909291905050506111f7565b6040518082815260200191505060405180910390f35b6105e1600480360360208110156105cb57600080fd5b810190808035906020019092919050505061127d565b604051808273ffffffffffffffffffffffffffffffffffffffff1673ffffffffffffffffffffffffffffffffffffffff16815260200191505060405180910390f35b6106656004803603602081101561063957600080fd5b81019080803573ffffffffffffffffffffffffffffffffffffffff169060200190929190505050611345565b6040518082815260200191505060405180910390f35b610683611413565b005b6106c76004803603602081101561069b57600080fd5b81019080803573ffffffffffffffffffffffffffffffffffffffff16906020019092919050505061154c565b6040518080602001828103825283818151815260200191508051906020019060200280838360005b8381101561070a5780820151818401526020810190506106ef565b505050509050019250505060405180910390f35b610726611736565b604051808273ffffffffffffffffffffffffffffffffffffffff1673ffffffffffffffffffffffffffffffffffffffff16815260200191505060405180910390f35b61077061175f565b604051808215151515815260200191505060405180910390f35b6107926117b6565b6040518080602001828103825283818151815260200191508051906020019080838360005b838110156107d25780820151818401526020810190506107b7565b50505050905090810190601f1680156107ff5780820380516001836020036101000a031916815260200191505b509250505060405180910390f35b61085b6004803603604081101561082357600080fd5b81019080803573ffffffffffffffffffffffffffffffffffffffff1690602001909291908035151590602001909291905050506117ef565b005b6108a96004803603604081101561087357600080fd5b81019080803573ffffffffffffffffffffffffffffffffffffffff16906020019092919080359060200190929190505050611992565b005b6108b36119a1565b6040518082815260200191505060405180910390f35b6108d16119a7565b6040518082815260200191505060405180910390f35b6109ea600480360360808110156108fd57600080fd5b81019080803573ffffffffffffffffffffffffffffffffffffffff169060200190929190803573ffffffffffffffffffffffffffffffffffffffff169060200190929190803590602001909291908035906020019064010000000081111561096457600080fd5b82018360208201111561097657600080fd5b8035906020019184600183028401116401000000008311171561099857600080fd5b91908080601f016020809104026020016040519081016040528093929190818152602001838380828437600081840152601f19601f8201169050808301925050505050505091929192905050506119ac565b005b610a2260048036036040811015610a0257600080fd5b810190808035906020019092919080359060200190929190505050611ab5565b6040518082815260200191505060405180910390f35b610a9a60048036036040811015610a4e57600080fd5b81019080803573ffffffffffffffffffffffffffffffffffffffff169060200190929190803573ffffffffffffffffffffffffffffffffffffffff169060200190929190505050611d5f565b604051808215151515815260200191505060405180910390f35b610ae060048036036020811015610aca57600080fd5b8101908080359060200190929190505050611df3565b604051808681526020018581526020018481526020018381526020018281526020019550505050505060405180910390f35b610b5460048036036020811015610b2857600080fd5b81019080803573ffffffffffffffffffffffffffffffffffffffff169060200190929190505050611ea2565b005b60006380ac58cd60e01b7bffffffffffffffffffffffffffffffffffffffffffffffffffffffff1916827bffffffffffffffffffffffffffffffffffffffffffffffffffffffff19161480610bef57506301ffc9a760e01b7bffffffffffffffffffffffffffffffffffffffffffffffffffffffff1916827bffffffffffffffffffffffffffffffffffffffffffffffffffffffff1916145b9050919050565b6040518060400160405280600d81526020017f43727970746f4b6974746965730000000000000000000000000000000000000081525081565b6000610c3a82611f28565b610c8f576040517f08c379a0000000000000000000000000000000000000000000000000000000008152600401808060200182810382526024815260200180612d396024913960400191505060405180910390fd5b6003600083815260200190815260200160002060009054906101000a900473ffffffffffffffffffffffffffffffffffffffff169050919050565b6000610cd58261127d565b90508073ffffffffffffffffffffffffffffffffffffffff168373ffffffffffffffffffffffffffffffffffffffff161415610d79576040517f08c379a00000000000000000000000000000000000000000000000000000000081526004018080602001828103825260198152602001807f617070726f76616c20746f2063757272656e74206f776e65720000000000000081525060200191505060405180910390fd5b610d833383611f9a565b610dd8576040517f08c379a0000000000000000000000000000000000000000000000000000000008152600401808060200182810382526030815260200180612d7e6030913960400191505060405180910390fd5b826003600084815260200190815260200160002060006101000a81548173ffffffffffffffffffffffffffffffffffffffff021916908373ffffffffffffffffffffffffffffffffffffffff160217905550818373ffffffffffffffffffffffffffffffffffffffff168273ffffffffffffffffffffffffffffffffffffffff167f8c5be1e5ebec7d5bd14f71427d1e84f3dd0314c0f7b2291e5b200ac8c7c3b92560405160405180910390a4505050565b6000600180549050905090565b610ea081611f28565b610f12576040517f08c379a00000000000000000000000000000000000000000000000000000000081526004018080602001828103825260118152602001807f6e6f6e6578697374656e7420746f6b656e00000000000000000000000000000081525060200191505060405180910390fd5b610f1c3382611fdb565b610f8e576040517f08c379a000000000000000000000000000000000000000000000000000000000815260040180806020018281038252600e8152602001807f6e6f7420617574686f72697a656400000000000000000000000000000000000081525060200191505060405180910390fd5b610f99838383612070565b505050565b6000610fa983611345565b821061101d576040517f08c379a00000000000000000000000000000000000000000000000000000000081526004018080602001828103825260138152602001807f696e646578206f7574206f6620626f756e64730000000000000000000000000081525060200191505060405180910390fd5b6110268361154c565b828151811061103157fe5b6020026020010151905092915050565b61105c838383604051806020016040528060008152506119ac565b505050565b606080600560008481526020019081526020016000208054806020026020016040519081016040528092919081815260200182805480156110c157602002820191906000526020600020905b8154815260200190600101908083116110ad575b5050505050905080915050919050565b60006110db61175f565b61114d576040517f08c379a00000000000000000000000000000000000000000000000000000000081526004018080602001828103825260208152602001807f4f776e61626c653a2063616c6c6572206973206e6f7420746865206f776e657281525060200191505060405180910390fd5b6064600754106111c5576040517f08c379a00000000000000000000000000000000000000000000000000000000081526004018080602001828103825260128152602001807f4c696d69742067656e302072656163686564000000000000000000000000000081525060200191505060405180910390fd5b6111db600160075461239590919063ffffffff16565b6007819055506111f06000806000853361241d565b9050919050565b6000611201610e8a565b8210611275576040517f08c379a00000000000000000000000000000000000000000000000000000000081526004018080602001828103825260138152602001807f696e646578206f7574206f6620626f756e64730000000000000000000000000081525060200191505060405180910390fd5b819050919050565b6000806002600084815260200190815260200160002060009054906101000a900473ffffffffffffffffffffffffffffffffffffffff169050600073ffffffffffffffffffffffffffffffffffffffff168173ffffffffffffffffffffffffffffffffffffffff16141561133c576040517f08c379a0000000000000000000000000000000000000000000000000000000008152600401808060200182810382526021815260200180612d5d6021913960400191505060405180910390fd5b80915050919050565b60008073ffffffffffffffffffffffffffffffffffffffff168273ffffffffffffffffffffffffffffffffffffffff1614156113cc576040517f08c379a0000000000000000000000000000000000000000000000000000000008152600401808060200182810382526022815260200180612df56022913960400191505060405180910390fd5b600460008373ffffffffffffffffffffffffffffffffffffffff1673ffffffffffffffffffffffffffffffffffffffff168152602001908152602001600020549050919050565b61141b61175f565b61148d576040517f08c379a00000000000000000000000000000000000000000000000000000000081526004018080602001828103825260208152602001807f4f776e61626c653a2063616c6c6572206973206e6f7420746865206f776e657281525060200191505060405180910390fd5b600073ffffffffffffffffffffffffffffffffffffffff166000809054906101000a900473ffffffffffffffffffffffffffffffffffffffff1673ffffffffffffffffffffffffffffffffffffffff167f8be0079c531659141344cd1fd0a4f28419497f9722a3daafe3b4186f6b6457e060405160405180910390a360008060006101000a81548173ffffffffffffffffffffffffffffffffffffffff021916908373ffffffffffffffffffffffffffffffffffffffff160217905550565b6060600073ffffffffffffffffffffffffffffffffffffffff168273ffffffffffffffffffffffffffffffffffffffff1614156115f1576040517f08c379a00000000000000000000000000000000000000000000000000000000081526004018080602001828103825260208152602001807f546f6b656e20717565727920666f7220746865207a65726f206164647265737381525060200191505060405180910390fd5b60006115fc83611345565b905060008114156116405760006040519080825280602002602001820160405280156116375781602001602082028038833980820191505090505b50915050611731565b6060816040519080825280602002602001820160405280156116715781602001602082028038833980820191505090505b509050600061167e610e8a565b9050600080905060008090505b828111611728578673ffffffffffffffffffffffffffffffffffffffff166002600083815260200190815260200160002060009054906101000a900473ffffffffffffffffffffffffffffffffffffffff1673ffffffffffffffffffffffffffffffffffffffff16141561171b578084838151811061170657fe5b60200260200101818152505081806001019250505b808060010191505061168b565b83955050505050505b919050565b60008060009054906101000a900473ffffffffffffffffffffffffffffffffffffffff16905090565b60008060009054906101000a900473ffffffffffffffffffffffffffffffffffffffff1673ffffffffffffffffffffffffffffffffffffffff163373ffffffffffffffffffffffffffffffffffffffff1614905090565b6040518060400160405280600381526020017f434154000000000000000000000000000000000000000000000000000000000081525081565b3373ffffffffffffffffffffffffffffffffffffffff168273ffffffffffffffffffffffffffffffffffffffff161415611891576040517f08c379a00000000000000000000000000000000000000000000000000000000081526004018080602001828103825260128152602001807f617070726f76616c20746f2063616c6c6572000000000000000000000000000081525060200191505060405180910390fd5b80600660003373ffffffffffffffffffffffffffffffffffffffff1673ffffffffffffffffffffffffffffffffffffffff16815260200190815260200160002060008473ffffffffffffffffffffffffffffffffffffffff1673ffffffffffffffffffffffffffffffffffffffff16815260200190815260200160002060006101000a81548160ff0219169083151502179055508173ffffffffffffffffffffffffffffffffffffffff163373ffffffffffffffffffffffffffffffffffffffff167f17307eab39ab6107e8899845ad3d59bd9653f200f220920489ca2b5937696c3183604051808215151515815260200191505060405180910390a35050565b61199d338383611041565b5050565b60075481565b606481565b6119b582611f28565b611a27576040517f08c379a00000000000000000000000000000000000000000000000000000000081526004018080602001828103825260118152602001807f6e6f6e6578697374656e7420746f6b656e00000000000000000000000000000081525060200191505060405180910390fd5b611a313383611fdb565b611aa3576040517f08c379a000000000000000000000000000000000000000000000000000000000815260040180806020018281038252600e8152602001807f6e6f7420617574686f72697a656400000000000000000000000000000000000081525060200191505060405180910390fd5b611aaf848484846125f7565b50505050565b6000611ac13384611f9a565b611b33576040517f08c379a000000000000000000000000000000000000000000000000000000000815260040180806020018281038252600d8152602001807f4e6f74206f776e206b697474790000000000000000000000000000000000000081525060200191505060405180910390fd5b611b3d3383611f9a565b611baf576040517f08c379a000000000000000000000000000000000000000000000000000000000815260040180806020018281038252600d8152602001807f4e6f74206f776e206b697474790000000000000000000000000000000000000081525060200191505060405180910390fd5b81831415611c25576040517f08c379a00000000000000000000000000000000000000000000000000000000081526004018080602001828103825260108152602001807f4c657473206e6f7420646f20746869730000000000000000000000000000000081525060200191505060405180910390fd5b600060018481548110611c3457fe5b90600052602060002090600202019050600060018481548110611c5357fe5b906000526020600020906002020190506000611c7783600001548360000154612686565b90506000611cc46001611cb68660010160109054906101000a900461ffff1661ffff168660010160109054906101000a900461ffff1661ffff166127e6565b61239590919063ffffffff16565b90506000611cd5888884863361241d565b90506005600088815260200190815260200160002081908060018154018082558091505090600182039060005260206000200160009091929091909150555060056000898152602001908152602001600020819080600181540180825580915050906001820390600052602060002001600090919290919091505550809550505050505092915050565b6000600660008473ffffffffffffffffffffffffffffffffffffffff1673ffffffffffffffffffffffffffffffffffffffff16815260200190815260200160002060008373ffffffffffffffffffffffffffffffffffffffff1673ffffffffffffffffffffffffffffffffffffffff16815260200190815260200160002060009054906101000a900460ff16905092915050565b60008060008060008060018781548110611e0957fe5b906000526020600020906002020190508060010160009054906101000a900467ffffffffffffffff1667ffffffffffffffff16945080600101600c9054906101000a900463ffffffff1663ffffffff1693508060010160089054906101000a900463ffffffff1663ffffffff1692508060010160109054906101000a900461ffff1661ffff169150806000015495505091939590929450565b611eaa61175f565b611f1c576040517f08c379a00000000000000000000000000000000000000000000000000000000081526004018080602001828103825260208152602001807f4f776e61626c653a2063616c6c6572206973206e6f7420746865206f776e657281525060200191505060405180910390fd5b611f2581612800565b50565b6000806002600084815260200190815260200160002060009054906101000a900473ffffffffffffffffffffffffffffffffffffffff169050600073ffffffffffffffffffffffffffffffffffffffff168173ffffffffffffffffffffffffffffffffffffffff161415915050919050565b60008273ffffffffffffffffffffffffffffffffffffffff16611fbc8361127d565b73ffffffffffffffffffffffffffffffffffffffff1614905092915050565b600080611fe78361127d565b90508073ffffffffffffffffffffffffffffffffffffffff168473ffffffffffffffffffffffffffffffffffffffff16148061205657508373ffffffffffffffffffffffffffffffffffffffff1661203e84610c2f565b73ffffffffffffffffffffffffffffffffffffffff16145b8061206757506120668185611d5f565b5b91505092915050565b600073ffffffffffffffffffffffffffffffffffffffff168273ffffffffffffffffffffffffffffffffffffffff161415612113576040517f08c379a000000000000000000000000000000000000000000000000000000000815260040180806020018281038252601c8152602001807f7472616e7366657220746f20746865207a65726f20616464726573730000000081525060200191505060405180910390fd5b3073ffffffffffffffffffffffffffffffffffffffff168273ffffffffffffffffffffffffffffffffffffffff16141561214c57600080fd5b61219f6001600460008573ffffffffffffffffffffffffffffffffffffffff1673ffffffffffffffffffffffffffffffffffffffff1681526020019081526020016000205461239590919063ffffffff16565b600460008473ffffffffffffffffffffffffffffffffffffffff1673ffffffffffffffffffffffffffffffffffffffff16815260200190815260200160002081905550816002600083815260200190815260200160002060006101000a81548173ffffffffffffffffffffffffffffffffffffffff021916908373ffffffffffffffffffffffffffffffffffffffff160217905550600073ffffffffffffffffffffffffffffffffffffffff168373ffffffffffffffffffffffffffffffffffffffff1614612335576122bb6001600460008673ffffffffffffffffffffffffffffffffffffffff1673ffffffffffffffffffffffffffffffffffffffff1681526020019081526020016000205461294490919063ffffffff16565b600460008573ffffffffffffffffffffffffffffffffffffffff1673ffffffffffffffffffffffffffffffffffffffff168152602001908152602001600020819055506003600082815260200190815260200160002060006101000a81549073ffffffffffffffffffffffffffffffffffffffff02191690555b808273ffffffffffffffffffffffffffffffffffffffff168473ffffffffffffffffffffffffffffffffffffffff167fddf252ad1be2c89b69c2b068fc378daa952ba7f163c4a11628f55a4df523b3ef60405160405180910390a4505050565b600080828401905083811015612413576040517f08c379a000000000000000000000000000000000000000000000000000000000815260040180806020018281038252601b8152602001807f536166654d6174683a206164646974696f6e206f766572666c6f77000000000081525060200191505060405180910390fd5b8091505092915050565b6000612427612ccc565b6040518060a001604052808581526020014267ffffffffffffffff1681526020018863ffffffff1681526020018763ffffffff1681526020018661ffff168152509050600061255860018084908060018154018082558091505090600182039060005260206000209060020201600090919290919091506000820151816000015560208201518160010160006101000a81548167ffffffffffffffff021916908367ffffffffffffffff16021790555060408201518160010160086101000a81548163ffffffff021916908363ffffffff160217905550606082015181600101600c6101000a81548163ffffffff021916908363ffffffff16021790555060808201518160010160106101000a81548161ffff021916908361ffff160217905550505061294490919063ffffffff16565b90507f0a5311bd2a6608f08a180df2ee7c5946819a649b204b554bb8e39825b2c50ad584828a8a89604051808673ffffffffffffffffffffffffffffffffffffffff1673ffffffffffffffffffffffffffffffffffffffff1681526020018581526020018481526020018381526020018281526020019550505050505060405180910390a16125e960008583612070565b809250505095945050505050565b612602848484612070565b61260e8484848461298e565b612680576040517f08c379a000000000000000000000000000000000000000000000000000000000815260040180806020018281038252601e8152602001807f7472616e7366657220746f206e6f6e204552433732315265636569766572000081525060200191505060405180910390fd5b50505050565b6000612690612d15565b600061269a612b61565b90506000600790506000600190505b6080811161273b576000818460ff1616146126e957606487816126c857fe5b0660ff16848360ff16600881106126db57fe5b602002018181525050612710565b606486816126f357fe5b0660ff16848360ff166008811061270657fe5b6020020181815250505b6064878161271a57fe5b0496506064868161272757fe5b0495506001820391506002810290506126a9565b50600060078360ff168161274b57fe5b06905060638360ff168161275b57fe5b0660ff16848260ff166008811061276e57fe5b602002018181525050600080600090505b60088110156127d7576127ab86826008811061279757fe5b60200201518361239590919063ffffffff16565b9150600781146127cc576127c9606483612b7390919063ffffffff16565b91505b60018101905061277f565b50809550505050505092915050565b6000818310156127f657816127f8565b825b905092915050565b600073ffffffffffffffffffffffffffffffffffffffff168173ffffffffffffffffffffffffffffffffffffffff161415612886576040517f08c379a0000000000000000000000000000000000000000000000000000000008152600401808060200182810382526026815260200180612dae6026913960400191505060405180910390fd5b8073ffffffffffffffffffffffffffffffffffffffff166000809054906101000a900473ffffffffffffffffffffffffffffffffffffffff1673ffffffffffffffffffffffffffffffffffffffff167f8be0079c531659141344cd1fd0a4f28419497f9722a3daafe3b4186f6b6457e060405160405180910390a3806000806101000a81548173ffffffffffffffffffffffffffffffffffffffff021916908373ffffffffffffffffffffffffffffffffffffffff16021790555050565b600061298683836040518060400160405280601e81526020017f536166654d6174683a207375627472616374696f6e206f766572666c6f770000815250612bf9565b905092915050565b600061299984612cb9565b6129a65760019050612b59565b60008473ffffffffffffffffffffffffffffffffffffffff1663150b7a02338887876040518563ffffffff1660e01b8152600401808573ffffffffffffffffffffffffffffffffffffffff1673ffffffffffffffffffffffffffffffffffffffff1681526020018473ffffffffffffffffffffffffffffffffffffffff1673ffffffffffffffffffffffffffffffffffffffff16815260200183815260200180602001828103825283818151815260200191508051906020019080838360005b83811015612a81578082015181840152602081019050612a66565b50505050905090810190601f168015612aae5780820380516001836020036101000a031916815260200191505b5095505050505050602060405180830381600087803b158015612ad057600080fd5b505af1158015612ae4573d6000803e3d6000fd5b505050506040513d6020811015612afa57600080fd5b8101908080519060200190929190505050905063150b7a0260e01b7bffffffffffffffffffffffffffffffffffffffffffffffffffffffff1916817bffffffffffffffffffffffffffffffffffffffffffffffffffffffff1916149150505b949350505050565b600060ff4281612b6d57fe5b06905090565b600080831415612b865760009050612bf3565b6000828402905082848281612b9757fe5b0414612bee576040517f08c379a0000000000000000000000000000000000000000000000000000000008152600401808060200182810382526021815260200180612dd46021913960400191505060405180910390fd5b809150505b92915050565b6000838311158290612ca6576040517f08c379a00000000000000000000000000000000000000000000000000000000081526004018080602001828103825283818151815260200191508051906020019080838360005b83811015612c6b578082015181840152602081019050612c50565b50505050905090810190601f168015612c985780820380516001836020036101000a031916815260200191505b509250505060405180910390fd5b5060008385039050809150509392505050565b600080823b905060008111915050919050565b6040518060a0016040528060008152602001600067ffffffffffffffff168152602001600063ffffffff168152602001600063ffffffff168152602001600061ffff1681525090565b60405180610100016040528060089060208202803883398082019150509050509056fe617070726f76656420717565727920666f72206e6f6e6578697374656e74206b697474794f776e657220717565727920666f72206e6f6e6578697374656e74206b69747479617070726f76652063616c6c6572206973206e6f74206f776e6572206e6f7220617070726f76656420666f7220616c6c4f776e61626c653a206e6577206f776e657220697320746865207a65726f2061646472657373536166654d6174683a206d756c7469706c69636174696f6e206f766572666c6f7742616c616e636520717565727920666f7220746865207a65726f2061646472657373a265627a7a72315820b255d0632439ff680baa2c04112285e0098280fec6f30447e5204f24c428553264736f6c63430005100032",
  "source": "pragma solidity 0.5.16;\n\nimport \"./KittyMinting.sol\";\n\n/**\n * @title The KittyCore contract.\n * @author Erno Wever\n * @dev This contract is split in the following way:\n *      - KittyBase: This is where we define the most fundamental code shared throughout the core\n *             functionality. This includes our main data storage, constants and data types, plus\n *             internal functions for managing these items.\n *      - KittyOwnership: This provides the methods required for basic non-fungible token\n *      - KittyBreeding: This file contains the methods necessary to breed cats together\n *      - KittyMinting: This final facet contains the functionality we use for creating new gen0 cats.\n */\ncontract KittyCore is KittyMinting {\n    /**\n     * @notice Returns all the relevant information about a specific kitty\n     * @param _kittyId the id of the kitty to get information from\n     */\n    function getKitty(uint256 _kittyId)\n        public\n        view\n        returns (\n            uint256 genes,\n            uint256 birthTime,\n            uint256 dadId,\n            uint256 momId,\n            uint256 generation\n        )\n    {\n        Kitty storage kitty = _kitties[_kittyId];\n\n        birthTime = uint256(kitty.birthTime);\n        dadId = uint256(kitty.dadId);\n        momId = uint256(kitty.momId);\n        generation = uint256(kitty.generation);\n        genes = kitty.genes;\n    }\n}\n",
  "sourcePath": "/home/diogo/workspace/pointnetwork6/pointnetwork/example/kitties.point/eth/contracts/KittyCore.sol",
  "compiler": {
    "name": "solc",
    "version": "0.5.16+commit.9c3226ce.Emscripten.clang"
  },
  "schemaVersion": "3.4.5",
  "updatedAt": "2022-04-05T17:37:22.803Z",
  "networkType": "ethereum",
  "devdoc": {
    "author": "Erno Wever",
    "details": "This contract is split in the following way:     - KittyBase: This is where we define the most fundamental code shared throughout the core            functionality. This includes our main data storage, constants and data types, plus            internal functions for managing these items.     - KittyOwnership: This provides the methods required for basic non-fungible token     - KittyBreeding: This file contains the methods necessary to breed cats together     - KittyMinting: This final facet contains the functionality we use for creating new gen0 cats.",
    "methods": {
      "approve(address,uint256)": {
        "details": "[ERC721] The zero address indicates there is no approved address Requires - msg.sender is owner or approved opperator - cannot approve owner",
        "params": {
          "_kittyId": "The kitty id that is approved for",
          "_to": "The address."
        }
      },
      "balanceOf(address)": {
        "details": "[ERC721] Kitties assigned to the zero address are considered invalid, and this function throws for queries about the zero address",
        "params": {
          "_owner": "The address to check"
        },
        "return": "The address of the owner of the kitty"
      },
      "breed(uint256,uint256)": {
        "params": {
          "_dadId": "the id of the dad",
          "_momId": "the id of the mom"
        }
      },
      "createGen0Kitty(uint256)": {
        "details": "Can only be called by owner and when limit has not be reached",
        "return": "The id of the created kitty"
      },
      "getApproved(uint256)": {
        "details": "[ERC721] Get the approval address of the kitty Requires - _kittyId must exist",
        "params": {
          "_kittyId": "The kitty id"
        },
        "return": "The approved address for this kitty, or the zero address if there is none"
      },
      "getChildren(uint256)": {
        "params": {
          "_kittyId": "the id of the mom"
        },
        "return": "array of ids of the children"
      },
      "getKitty(uint256)": {
        "params": {
          "_kittyId": "the id of the kitty to get information from"
        }
      },
      "isApprovedForAll(address,address)": {
        "details": "[ERC721]",
        "params": {
          "_operator": "The operator",
          "_owner": "The owner"
        },
        "return": "True if `_operator` is an approved operator for `_owner`, false otherwise"
      },
      "isOwner()": {
        "details": "Returns true if the caller is the current owner."
      },
      "owner()": {
        "details": "Returns the address of the current owner."
      },
      "ownerOf(uint256)": {
        "details": "[ERC721] Kitties assigned to the zero address are considered invalid, and this function throws for queries about the zero address",
        "return": "the address of the onwer of _kittyId"
      },
      "renounceOwnership()": {
        "details": "Leaves the contract without owner. It will not be possible to call `onlyOwner` functions anymore. Can only be called by the current owner.     * NOTE: Renouncing ownership will leave the contract without an owner, thereby removing any functionality that is only available to the owner."
      },
      "safeTransferFrom(address,address,uint256)": {
        "details": "[ERC721] Transfer implementation with a check on caller if it can accept ERC721 Requires - valid token - valid, non-zero _to address (via _transfer) - not to this address to prevent potential misuse (via _transfer) - msg.sender to be the owner, approved, or operator - when the caller is a smart contract, it should accept ERC721 tokens",
        "params": {
          "_from": "current owner of the kitty",
          "_kittyId": "uint256 id of the kitty to be transferred",
          "_to": "address to receive the ownership of the given kitty id"
        }
      },
      "safeTransferFrom(address,address,uint256,bytes)": {
        "details": "[ERC721] This works identically to the other function with an extra data parameter except this function just sets data to \"\"",
        "params": {
          "_data": "bytes data to send along with a safe transfer check",
          "_from": "current owner of the kitty",
          "_kittyId": "The id of the kitty to be transferred",
          "_to": "address to receive the ownership of the given kitty id"
        }
      },
      "setApprovalForAll(address,bool)": {
        "details": "[ERC721] Emits the ApprovalForAll event. Requires - cannot approve self",
        "params": {
          "_approved": "The approval status",
          "_operator": "The kitty id"
        }
      },
      "supportsInterface(bytes4)": {
        "details": "Interface identification is specified in ERC-165. This function uses less than 30,000 gas.",
        "params": {
          "_interfaceId": "The interface identifier, as specified in ERC-165"
        },
        "return": "true if the contract implements _interfaceId and _interfaceId is not 0xffffffff, false otherwise"
      },
      "tokenByIndex(uint256)": {
        "details": "[ERC721Enumerable] Requires: - _index < totalSupply()",
        "params": {
          "_index": "A counter less than `totalSupply()`"
        },
        "return": "_index which is the same as the identifier"
      },
      "tokenOfOwnerByIndex(address,uint256)": {
        "details": "Gets the token ID at a given index of the tokens list of the requested owner.Be aware when calling this contract as its quite expensive because it loops through all kitties. Could potentially be optimized if we save all kitties also in an mapping of owners.",
        "params": {
          "_index": "uint256 representing the index to be accessed of the requested tokens list",
          "_owner": "address owning the tokens list to be accessed"
        },
        "return": "uint256 token ID at the given index of the tokens list owned by the requested address"
      },
      "tokensOfOwner(address)": {
        "details": "[ERC721Enumerable] Requires - _index < balanceOf(_owner) - _owner is  non-zero addressBe aware when calling this contract as its quite expensive because it loops through all kitties",
        "params": {
          "_owner": "An address where we are interested in kitties owned by them"
        },
        "return": "The token identifier for the `_index`th kitty assigned to `_owner`,  (sort order not specified)"
      },
      "totalSupply()": {
        "details": "[ERC721Enumerable]",
        "return": "A count of valid kitties tracked by this contract, where each one of them has an assigned and queryable owner not equal to the zero address"
      },
      "transfer(address,uint256)": {
        "params": {
          "_kittyId": "id of the kitty to be transferred",
          "_to": "address to receive the ownership of the given kitty id"
        }
      },
      "transferFrom(address,address,uint256)": {
        "details": "[ERC721] Transfers the ownership of a given token id to another address Requires - valid token - valid, non-zero _to address (via _transfer) - not to this address to prevent potential misuse (via _transfer) - msg.sender to be the owner, approved, or operator",
        "params": {
          "_from": "current owner of the kitty",
          "_kittyId": "id of the kitty to be transferred",
          "_to": "address to receive the ownership of the given kitty id"
        }
      },
      "transferOwnership(address)": {
        "details": "Transfers ownership of the contract to a new account (`newOwner`). Can only be called by the current owner."
      }
    },
    "title": "The KittyCore contract."
  },
  "userdoc": {
    "methods": {
      "approve(address,uint256)": {
        "notice": "Change or reaffirm the approved address for an kitty"
      },
      "balanceOf(address)": {
        "notice": "Count all Kitties assigned to an owner"
      },
      "breed(uint256,uint256)": {
        "notice": "Breed a new kitty based on a mom and dad"
      },
      "createGen0Kitty(uint256)": {
        "notice": "Creates a new gen0 kitty"
      },
      "getApproved(uint256)": {
        "notice": "Get the approved address for a single kitty"
      },
      "getChildren(uint256)": {
        "notice": "Get all the children of a kittyId"
      },
      "getKitty(uint256)": {
        "notice": "Returns all the relevant information about a specific kitty"
      },
      "isApprovedForAll(address,address)": {
        "notice": "Query if an address is an authorized operator for another address"
      },
      "ownerOf(uint256)": {
        "notice": "Find the owner of an Kitty"
      },
      "safeTransferFrom(address,address,uint256)": {
        "notice": "Transfers the ownership of an Kitty from one address to another address"
      },
      "safeTransferFrom(address,address,uint256,bytes)": {
        "notice": "Transfers the ownership of an Kitty from one address to another address"
      },
      "setApprovalForAll(address,bool)": {
        "notice": "Enable or disable approval for a third party (\"operator\") to manage all of `msg.sender`'s assets"
      },
      "supportsInterface(bytes4)": {
        "notice": "Query if a contract implements an interface"
      },
      "tokenByIndex(uint256)": {
        "notice": "Enumerate valid kitties"
      },
      "tokensOfOwner(address)": {
        "notice": "Returns a list of all Kitty IDs assigned to an address."
      },
      "totalSupply()": {
        "notice": "Count kitties tracked by this contract"
      },
      "transfer(address,uint256)": {
        "notice": "Transfers the ownership of an own Kitty to another address"
      },
      "transferFrom(address,address,uint256)": {
        "notice": "Transfer ownership of a Kitty -- THE CALLER IS RESPONSIBLE TO CONFIRM THAT `_to` IS CAPABLE OF RECEIVING KITTIES OR ELSE THEY MAY BE PERMANENTLY LOST"
      }
    }
  }
}