{
  "_format": "hh-sol-artifact-1",
  "contractName": "Identity",
  "sourceName": "contracts/Identity.sol",
  "abi": [
    {
      "anonymous": false,
      "inputs": [
        {
          "indexed": false,
          "internalType": "string",
          "name": "identity",
          "type": "string"
        },
        {
          "indexed": false,
          "internalType": "string",
          "name": "key",
          "type": "string"
        },
        {
          "indexed": false,
          "internalType": "string",
          "name": "value",
          "type": "string"
        }
      ],
      "name": "IKVSet",
      "type": "event"
    },
    {
      "anonymous": false,
      "inputs": [
        {
          "indexed": true,
          "internalType": "string",
          "name": "handle",
          "type": "string"
        },
        {
          "indexed": true,
          "internalType": "address",
          "name": "oldOwner",
          "type": "address"
        },
        {
          "indexed": true,
          "internalType": "address",
          "name": "newOwner",
          "type": "address"
        },
        {
          "indexed": false,
          "internalType": "uint256",
          "name": "date",
          "type": "uint256"
        }
      ],
      "name": "IdentityOwnershipTransferred",
      "type": "event"
    },
    {
      "anonymous": false,
      "inputs": [
        {
          "indexed": false,
          "internalType": "string",
          "name": "handle",
          "type": "string"
        },
        {
          "indexed": false,
          "internalType": "address",
          "name": "identityOwner",
          "type": "address"
        },
        {
          "components": [
            {
              "internalType": "bytes32",
              "name": "part1",
              "type": "bytes32"
            },
            {
              "internalType": "bytes32",
              "name": "part2",
              "type": "bytes32"
            }
          ],
          "indexed": false,
          "internalType": "struct Identity.PubKey64",
          "name": "commPublicKey",
          "type": "tuple"
        }
      ],
      "name": "IdentityRegistered",
      "type": "event"
    },
    {
      "inputs": [],
      "name": "MAX_HANDLE_LENGTH",
      "outputs": [
        {
          "internalType": "uint256",
          "name": "",
          "type": "uint256"
        }
      ],
      "stateMutability": "view",
      "type": "function"
    },
    {
      "inputs": [
        {
          "internalType": "string",
          "name": "anyCase",
          "type": "string"
        }
      ],
      "name": "canonical",
      "outputs": [
        {
          "internalType": "string",
          "name": "canonicalCase",
          "type": "string"
        }
      ],
      "stateMutability": "view",
      "type": "function"
    },
    {
      "inputs": [],
      "name": "finishMigrations",
      "outputs": [],
      "stateMutability": "nonpayable",
      "type": "function"
    },
    {
      "inputs": [
        {
          "internalType": "string",
          "name": "identity",
          "type": "string"
        }
      ],
      "name": "getCommPublicKeyByIdentity",
      "outputs": [
        {
          "components": [
            {
              "internalType": "bytes32",
              "name": "part1",
              "type": "bytes32"
            },
            {
              "internalType": "bytes32",
              "name": "part2",
              "type": "bytes32"
            }
          ],
          "internalType": "struct Identity.PubKey64",
          "name": "commPublicKey",
          "type": "tuple"
        }
      ],
      "stateMutability": "view",
      "type": "function"
    },
    {
      "inputs": [
        {
          "internalType": "address",
          "name": "owner",
          "type": "address"
        }
      ],
      "name": "getIdentityByOwner",
      "outputs": [
        {
          "internalType": "string",
          "name": "identity",
          "type": "string"
        }
      ],
      "stateMutability": "view",
      "type": "function"
    },
    {
      "inputs": [
        {
          "internalType": "string",
          "name": "identity",
          "type": "string"
        }
      ],
      "name": "getOwnerByIdentity",
      "outputs": [
        {
          "internalType": "address",
          "name": "owner",
          "type": "address"
        }
      ],
      "stateMutability": "view",
      "type": "function"
    },
    {
      "inputs": [
        {
          "internalType": "uint256",
          "name": "",
          "type": "uint256"
        }
      ],
      "name": "identityList",
      "outputs": [
        {
          "internalType": "string",
          "name": "",
          "type": "string"
        }
      ],
      "stateMutability": "view",
      "type": "function"
    },
    {
      "inputs": [
        {
          "internalType": "string",
          "name": "",
          "type": "string"
        }
      ],
      "name": "identityToCommPublicKey",
      "outputs": [
        {
          "internalType": "bytes32",
          "name": "part1",
          "type": "bytes32"
        },
        {
          "internalType": "bytes32",
          "name": "part2",
          "type": "bytes32"
        }
      ],
      "stateMutability": "view",
      "type": "function"
    },
    {
      "inputs": [
        {
          "internalType": "string",
          "name": "",
          "type": "string"
        }
      ],
      "name": "identityToOwner",
      "outputs": [
        {
          "internalType": "address",
          "name": "",
          "type": "address"
        }
      ],
      "stateMutability": "view",
      "type": "function"
    },
    {
      "inputs": [
        {
          "internalType": "string",
          "name": "",
          "type": "string"
        },
        {
          "internalType": "string",
          "name": "",
          "type": "string"
        }
      ],
      "name": "ikv",
      "outputs": [
        {
          "internalType": "string",
          "name": "",
          "type": "string"
        }
      ],
      "stateMutability": "view",
      "type": "function"
    },
    {
      "inputs": [
        {
          "internalType": "string",
          "name": "identity",
          "type": "string"
        },
        {
          "internalType": "string",
          "name": "key",
          "type": "string"
        }
      ],
      "name": "ikvGet",
      "outputs": [
        {
          "internalType": "string",
          "name": "value",
          "type": "string"
        }
      ],
      "stateMutability": "view",
      "type": "function"
    },
    {
      "inputs": [
        {
          "internalType": "string",
          "name": "identity",
          "type": "string"
        },
        {
          "internalType": "string",
          "name": "key",
          "type": "string"
        },
        {
          "internalType": "string",
          "name": "value",
          "type": "string"
        }
      ],
      "name": "ikvImportKV",
      "outputs": [],
      "stateMutability": "nonpayable",
      "type": "function"
    },
    {
      "inputs": [
        {
          "internalType": "string",
          "name": "",
          "type": "string"
        },
        {
          "internalType": "uint256",
          "name": "",
          "type": "uint256"
        }
      ],
      "name": "ikvList",
      "outputs": [
        {
          "internalType": "string",
          "name": "",
          "type": "string"
        }
      ],
      "stateMutability": "view",
      "type": "function"
    },
    {
      "inputs": [
        {
          "internalType": "string",
          "name": "identity",
          "type": "string"
        },
        {
          "internalType": "string",
          "name": "key",
          "type": "string"
        },
        {
          "internalType": "string",
          "name": "value",
          "type": "string"
        }
      ],
      "name": "ikvPut",
      "outputs": [],
      "stateMutability": "nonpayable",
      "type": "function"
    },
    {
      "inputs": [
        {
          "internalType": "string",
          "name": "",
          "type": "string"
        }
      ],
      "name": "lowercaseToCanonicalIdentities",
      "outputs": [
        {
          "internalType": "string",
          "name": "",
          "type": "string"
        }
      ],
      "stateMutability": "view",
      "type": "function"
    },
    {
      "inputs": [],
      "name": "migrationApplied",
      "outputs": [
        {
          "internalType": "bool",
          "name": "",
          "type": "bool"
        }
      ],
      "stateMutability": "view",
      "type": "function"
    },
    {
      "inputs": [
        {
          "internalType": "address",
          "name": "",
          "type": "address"
        }
      ],
      "name": "ownerToIdentity",
      "outputs": [
        {
          "internalType": "string",
          "name": "",
          "type": "string"
        }
      ],
      "stateMutability": "view",
      "type": "function"
    },
    {
      "inputs": [
        {
          "internalType": "string",
          "name": "handle",
          "type": "string"
        },
        {
          "internalType": "address",
          "name": "identityOwner",
          "type": "address"
        },
        {
          "internalType": "bytes32",
          "name": "commPublicKeyPart1",
          "type": "bytes32"
        },
        {
          "internalType": "bytes32",
          "name": "commPublicKeyPart2",
          "type": "bytes32"
        }
      ],
      "name": "register",
      "outputs": [],
      "stateMutability": "nonpayable",
      "type": "function"
    },
    {
      "inputs": [
        {
          "internalType": "string",
          "name": "handle",
          "type": "string"
        },
        {
          "internalType": "address",
          "name": "newOwner",
          "type": "address"
        }
      ],
      "name": "transferIdentityOwnership",
      "outputs": [],
      "stateMutability": "nonpayable",
      "type": "function"
    }
  ],
  "bytecode": "0x60806040526000600760006101000a81548160ff02191690831515021790555034801561002b57600080fd5b5061273a8061003b6000396000f3fe608060405234801561001057600080fd5b50600436106101215760003560e01c80637ab42dc4116100ad57806384811c2f1161007157806384811c2f14610340578063b203df4014610370578063c1a92f03146103a0578063d7f42811146103d0578063e5833a651461040157610121565b80637ab42dc41461028c5780637d72f8ad146102bc5780637e038b7b146102ec5780638143f4b714610308578063845ee0ce1461032457610121565b80634f564f0a116100f45780634f564f0a146101ae5780635c2897df146101de5780635d1ff9e61461020e57806369b131001461023e5780636f78ce0b1461026e57610121565b806304bf8d2c1461012657806307215216146101565780633c76459314610160578063474cf5b514610190575b600080fd5b610140600480360381019061013b9190611b0d565b61041d565b60405161014d9190611fcd565b60405180910390f35b61015e610466565b005b61017a60048036038101906101759190611c35565b610483565b604051610187919061202c565b60405180910390f35b61019861055c565b6040516101a59190611fe8565b60405180910390f35b6101c860048036038101906101c39190611c35565b61056f565b6040516101d5919061202c565b60405180910390f35b6101f860048036038101906101f39190611b0d565b61063c565b604051610205919061202c565b60405180910390f35b61022860048036038101906102239190611b0d565b6106fa565b60405161023591906121b8565b60405180910390f35b61025860048036038101906102539190611b0d565b61074e565b6040516102659190611fcd565b60405180910390f35b61027661079d565b60405161028391906121d3565b60405180910390f35b6102a660048036038101906102a19190611d54565b6107a2565b6040516102b3919061202c565b60405180910390f35b6102d660048036038101906102d19190611b0d565b610871565b6040516102e3919061202c565b60405180910390f35b61030660048036038101906103019190611bb2565b610927565b005b610322600480360381019061031d9190611cad565b610a96565b005b61033e60048036038101906103399190611cad565b610b1e565b005b61035a60048036038101906103559190611db0565b610b84565b604051610367919061202c565b60405180910390f35b61038a60048036038101906103859190611ae0565b610c30565b604051610397919061202c565b60405180910390f35b6103ba60048036038101906103b59190611ae0565b610d01565b6040516103c7919061202c565b60405180910390f35b6103ea60048036038101906103e59190611b0d565b610da1565b6040516103f8929190612003565b60405180910390f35b61041b60048036038101906104169190611b56565b610ddb565b005b6000818051602081018201805184825260208301602085012081835280955050505050506000915054906101000a900473ffffffffffffffffffffffffffffffffffffffff1681565b6001600760006101000a81548160ff021916908315150217905550565b600282805160208101820180518482526020830160208501208183528095505050505050818051602081018201805184825260208301602085012081835280955050505050506000915091505080546104db90612355565b80601f016020809104026020016040519081016040528092919081815260200182805461050790612355565b80156105545780601f1061052957610100808354040283529160200191610554565b820191906000526020600020905b81548152906001019060200180831161053757829003601f168201915b505050505081565b600760009054906101000a900460ff1681565b60606002836040516105819190611fb6565b90815260200160405180910390208260405161059d9190611fb6565b908152602001604051809103902080546105b690612355565b80601f01602080910402602001604051908101604052809291908181526020018280546105e290612355565b801561062f5780601f106106045761010080835404028352916020019161062f565b820191906000526020600020905b81548152906001019060200180831161061257829003601f168201915b5050505050905092915050565b6060600061064983611141565b905060048160405161065b9190611fb6565b9081526020016040518091039020805461067490612355565b80601f01602080910402602001604051908101604052809291908181526020018280546106a090612355565b80156106ed5780601f106106c2576101008083540402835291602001916106ed565b820191906000526020600020905b8154815290600101906020018083116106d057829003601f168201915b5050505050915050919050565b61070261192e565b600561070d8361063c565b60405161071a9190611fb6565b9081526020016040518091039020604051806040016040529081600082015481526020016001820154815250509050919050565b60008061075a8361063c565b6040516107679190611fb6565b908152602001604051809103902060009054906101000a900473ffffffffffffffffffffffffffffffffffffffff169050919050565b601081565b60038280516020810182018051848252602083016020850120818352809550505050505081815481106107d457600080fd5b906000526020600020016000915091505080546107f090612355565b80601f016020809104026020016040519081016040528092919081815260200182805461081c90612355565b80156108695780601f1061083e57610100808354040283529160200191610869565b820191906000526020600020905b81548152906001019060200180831161084c57829003601f168201915b505050505081565b60048180516020810182018051848252602083016020850120818352809550505050505060009150905080546108a690612355565b80601f01602080910402602001604051908101604052809291908181526020018280546108d290612355565b801561091f5780601f106108f45761010080835404028352916020019161091f565b820191906000526020600020905b81548152906001019060200180831161090257829003601f168201915b505050505081565b6109308461137e565b61096f576040517f08c379a0000000000000000000000000000000000000000000000000000000008152600401610966906120f8565b60405180910390fd5b600061097a85611141565b9050610a2b60048260405161098f9190611fb6565b908152602001604051809103902080546109a890612355565b80601f01602080910402602001604051908101604052809291908181526020018280546109d490612355565b8015610a215780601f106109f657610100808354040283529160200191610a21565b820191906000526020600020905b815481529060010190602001808311610a0457829003601f168201915b5050505050611455565b610a6a576040517f08c379a0000000000000000000000000000000000000000000000000000000008152600401610a6190612118565b60405180910390fd5b60006040518060400160405280858152602001848152509050610a8e868683611462565b505050505050565b82610aa08161074e565b73ffffffffffffffffffffffffffffffffffffffff163373ffffffffffffffffffffffffffffffffffffffff1614610b0d576040517f08c379a0000000000000000000000000000000000000000000000000000000008152600401610b04906120d8565b60405180910390fd5b610b18848484611600565b50505050565b60001515600760009054906101000a900460ff16151514610b74576040517f08c379a0000000000000000000000000000000000000000000000000000000008152600401610b6b90612158565b60405180910390fd5b610b7f838383611600565b505050565b60068181548110610b9457600080fd5b906000526020600020016000915090508054610baf90612355565b80601f0160208091040260200160405190810160405280929190818152602001828054610bdb90612355565b8015610c285780601f10610bfd57610100808354040283529160200191610c28565b820191906000526020600020905b815481529060010190602001808311610c0b57829003601f168201915b505050505081565b6060600160008373ffffffffffffffffffffffffffffffffffffffff1673ffffffffffffffffffffffffffffffffffffffff1681526020019081526020016000208054610c7c90612355565b80601f0160208091040260200160405190810160405280929190818152602001828054610ca890612355565b8015610cf55780601f10610cca57610100808354040283529160200191610cf5565b820191906000526020600020905b815481529060010190602001808311610cd857829003601f168201915b50505050509050919050565b60016020528060005260406000206000915090508054610d2090612355565b80601f0160208091040260200160405190810160405280929190818152602001828054610d4c90612355565b8015610d995780601f10610d6e57610100808354040283529160200191610d99565b820191906000526020600020905b815481529060010190602001808311610d7c57829003601f168201915b505050505081565b6005818051602081018201805184825260208301602085012081835280955050505050506000915090508060000154908060010154905082565b81610de58161074e565b73ffffffffffffffffffffffffffffffffffffffff163373ffffffffffffffffffffffffffffffffffffffff1614610e52576040517f08c379a0000000000000000000000000000000000000000000000000000000008152600401610e49906120d8565b60405180910390fd5b600073ffffffffffffffffffffffffffffffffffffffff168273ffffffffffffffffffffffffffffffffffffffff161415610ec2576040517f08c379a0000000000000000000000000000000000000000000000000000000008152600401610eb990612198565b60405180910390fd5b3373ffffffffffffffffffffffffffffffffffffffff168273ffffffffffffffffffffffffffffffffffffffff161415610f31576040517f08c379a0000000000000000000000000000000000000000000000000000000008152600401610f2890612178565b60405180910390fd5b6000600160008473ffffffffffffffffffffffffffffffffffffffff1673ffffffffffffffffffffffffffffffffffffffff1681526020019081526020016000208054610f7d90612355565b905014610fbf576040517f08c379a0000000000000000000000000000000000000000000000000000000008152600401610fb690612138565b60405180910390fd5b6000339050600160008273ffffffffffffffffffffffffffffffffffffffff1673ffffffffffffffffffffffffffffffffffffffff168152602001908152602001600020600061100f919061194e565b826000856040516110209190611fb6565b908152602001604051809103902060006101000a81548173ffffffffffffffffffffffffffffffffffffffff021916908373ffffffffffffffffffffffffffffffffffffffff16021790555083600160008573ffffffffffffffffffffffffffffffffffffffff1673ffffffffffffffffffffffffffffffffffffffff16815260200190815260200160002090805190602001906110bf92919061198e565b508273ffffffffffffffffffffffffffffffffffffffff168173ffffffffffffffffffffffffffffffffffffffff16856040516110fc9190611fb6565b60405180910390207fce2ee58446153358a542cb030db803ba54839b0aac0437f2c6213b8a38aafc7b4260405161113391906121d3565b60405180910390a450505050565b606060008290506000815167ffffffffffffffff8111156111655761116461248e565b5b6040519080825280601f01601f1916602001820160405280156111975781602001600182028036833780820191505090505b50905060005b825181101561137357604160f81b7effffffffffffffffffffffffffffffffffffffffffffffffffffffffffffff19168382815181106111e0576111df61245f565b5b602001015160f81c60f81b7effffffffffffffffffffffffffffffffffffffffffffffffffffffffffffff1916101580156112805750605a60f81b7effffffffffffffffffffffffffffffffffffffffffffffffffffffffffffff19168382815181106112505761124f61245f565b5b602001015160f81c60f81b7effffffffffffffffffffffffffffffffffffffffffffffffffffffffffffff191611155b156112ff57602083828151811061129a5761129961245f565b5b602001015160f81c60f81b60f81c60ff166112b5919061226b565b60f81b8282815181106112cb576112ca61245f565b5b60200101907effffffffffffffffffffffffffffffffffffffffffffffffffffffffffffff1916908160001a905350611360565b8281815181106113125761131161245f565b5b602001015160f81c60f81b8282815181106113305761132f61245f565b5b60200101907effffffffffffffffffffffffffffffffffffffffffffffffffffffffffffff1916908160001a9053505b808061136b906123b8565b91505061119d565b508092505050919050565b600080829050601081511115611398576000915050611450565b60005b81518110156114495760008282815181106113b9576113b861245f565b5b602001015160f81c60f81b90506113cf81611737565b1580156114245750605f60f81b7effffffffffffffffffffffffffffffffffffffffffffffffffffffffffffff1916817effffffffffffffffffffffffffffffffffffffffffffffffffffffffffffff191614155b156114355760009350505050611450565b508080611441906123b8565b91505061139b565b5060019150505b919050565b6000808251149050919050565b816000846040516114739190611fb6565b908152602001604051809103902060006101000a81548173ffffffffffffffffffffffffffffffffffffffff021916908373ffffffffffffffffffffffffffffffffffffffff16021790555082600160008473ffffffffffffffffffffffffffffffffffffffff1673ffffffffffffffffffffffffffffffffffffffff168152602001908152602001600020908051906020019061151292919061198e565b50806005846040516115249190611fb6565b9081526020016040518091039020600082015181600001556020820151816001015590505082600461155585611141565b6040516115629190611fb6565b9081526020016040518091039020908051906020019061158392919061198e565b506006839080600181540180825580915050600190039060005260206000200160009091909190915090805190602001906115bf92919061198e565b507f601421519ee1007ace4b75506db9b1d1657c6cf0a9c48a3f1a5f14af66a7f68d8383836040516115f39392919061204e565b60405180910390a1505050565b60006002846040516116129190611fb6565b90815260200160405180910390208360405161162e9190611fb6565b9081526020016040518091039020805461164790612355565b905014156116a85760038360405161165f9190611fb6565b9081526020016040518091039020829080600181540180825580915050600190039060005260206000200160009091909190915090805190602001906116a692919061198e565b505b806002846040516116b99190611fb6565b9081526020016040518091039020836040516116d59190611fb6565b908152602001604051809103902090805190602001906116f692919061198e565b507f90e7e5bc483feca3d40b4e00e3ba3df424e2256a4e669e4c5f0b8228fdda6c4583838360405161172a9392919061208c565b60405180910390a1505050565b6000603060f81b7effffffffffffffffffffffffffffffffffffffffffffffffffffffffffffff1916827effffffffffffffffffffffffffffffffffffffffffffffffffffffffffffff1916101580156117d95750603960f81b7effffffffffffffffffffffffffffffffffffffffffffffffffffffffffffff1916827effffffffffffffffffffffffffffffffffffffffffffffffffffffffffffff191611155b806118805750604160f81b7effffffffffffffffffffffffffffffffffffffffffffffffffffffffffffff1916827effffffffffffffffffffffffffffffffffffffffffffffffffffffffffffff19161015801561187f5750605a60f81b7effffffffffffffffffffffffffffffffffffffffffffffffffffffffffffff1916827effffffffffffffffffffffffffffffffffffffffffffffffffffffffffffff191611155b5b806119275750606160f81b7effffffffffffffffffffffffffffffffffffffffffffffffffffffffffffff1916827effffffffffffffffffffffffffffffffffffffffffffffffffffffffffffff1916101580156119265750607a60f81b7effffffffffffffffffffffffffffffffffffffffffffffffffffffffffffff1916827effffffffffffffffffffffffffffffffffffffffffffffffffffffffffffff191611155b5b9050919050565b604051806040016040528060008019168152602001600080191681525090565b50805461195a90612355565b6000825580601f1061196c575061198b565b601f01602090049060005260206000209081019061198a9190611a14565b5b50565b82805461199a90612355565b90600052602060002090601f0160209004810192826119bc5760008555611a03565b82601f106119d557805160ff1916838001178555611a03565b82800160010185558215611a03579182015b82811115611a025782518255916020019190600101906119e7565b5b509050611a109190611a14565b5090565b5b80821115611a2d576000816000905550600101611a15565b5090565b6000611a44611a3f84612213565b6121ee565b905082815260208101848484011115611a6057611a5f6124c2565b5b611a6b848285612313565b509392505050565b600081359050611a82816126bf565b92915050565b600081359050611a97816126d6565b92915050565b600082601f830112611ab257611ab16124bd565b5b8135611ac2848260208601611a31565b91505092915050565b600081359050611ada816126ed565b92915050565b600060208284031215611af657611af56124cc565b5b6000611b0484828501611a73565b91505092915050565b600060208284031215611b2357611b226124cc565b5b600082013567ffffffffffffffff811115611b4157611b406124c7565b5b611b4d84828501611a9d565b91505092915050565b60008060408385031215611b6d57611b6c6124cc565b5b600083013567ffffffffffffffff811115611b8b57611b8a6124c7565b5b611b9785828601611a9d565b9250506020611ba885828601611a73565b9150509250929050565b60008060008060808587031215611bcc57611bcb6124cc565b5b600085013567ffffffffffffffff811115611bea57611be96124c7565b5b611bf687828801611a9d565b9450506020611c0787828801611a73565b9350506040611c1887828801611a88565b9250506060611c2987828801611a88565b91505092959194509250565b60008060408385031215611c4c57611c4b6124cc565b5b600083013567ffffffffffffffff811115611c6a57611c696124c7565b5b611c7685828601611a9d565b925050602083013567ffffffffffffffff811115611c9757611c966124c7565b5b611ca385828601611a9d565b9150509250929050565b600080600060608486031215611cc657611cc56124cc565b5b600084013567ffffffffffffffff811115611ce457611ce36124c7565b5b611cf086828701611a9d565b935050602084013567ffffffffffffffff811115611d1157611d106124c7565b5b611d1d86828701611a9d565b925050604084013567ffffffffffffffff811115611d3e57611d3d6124c7565b5b611d4a86828701611a9d565b9150509250925092565b60008060408385031215611d6b57611d6a6124cc565b5b600083013567ffffffffffffffff811115611d8957611d886124c7565b5b611d9585828601611a9d565b9250506020611da685828601611acb565b9150509250929050565b600060208284031215611dc657611dc56124cc565b5b6000611dd484828501611acb565b91505092915050565b611de6816122c1565b82525050565b611df5816122d3565b82525050565b611e04816122df565b82525050565b611e13816122df565b82525050565b6000611e2482612244565b611e2e818561224f565b9350611e3e818560208601612322565b611e47816124d1565b840191505092915050565b6000611e5d82612244565b611e678185612260565b9350611e77818560208601612322565b80840191505092915050565b6000611e9060268361224f565b9150611e9b826124e2565b604082019050919050565b6000611eb360368361224f565b9150611ebe82612531565b604082019050919050565b6000611ed660298361224f565b9150611ee182612580565b604082019050919050565b6000611ef9601b8361224f565b9150611f04826125cf565b602082019050919050565b6000611f1c600d8361224f565b9150611f27826125f8565b602082019050919050565b6000611f3f60288361224f565b9150611f4a82612621565b604082019050919050565b6000611f6260258361224f565b9150611f6d82612670565b604082019050919050565b604082016000820151611f8e6000850182611dfb565b506020820151611fa16020850182611dfb565b50505050565b611fb081612309565b82525050565b6000611fc28284611e52565b915081905092915050565b6000602082019050611fe26000830184611ddd565b92915050565b6000602082019050611ffd6000830184611dec565b92915050565b60006040820190506120186000830185611e0a565b6120256020830184611e0a565b9392505050565b600060208201905081810360008301526120468184611e19565b905092915050565b600060808201905081810360008301526120688186611e19565b90506120776020830185611ddd565b6120846040830184611f78565b949350505050565b600060608201905081810360008301526120a68186611e19565b905081810360208301526120ba8185611e19565b905081810360408301526120ce8184611e19565b9050949350505050565b600060208201905081810360008301526120f181611e83565b9050919050565b6000602082019050818103600083015261211181611ea6565b9050919050565b6000602082019050818103600083015261213181611ec9565b9050919050565b6000602082019050818103600083015261215181611eec565b9050919050565b6000602082019050818103600083015261217181611f0f565b9050919050565b6000602082019050818103600083015261219181611f32565b9050919050565b600060208201905081810360008301526121b181611f55565b9050919050565b60006040820190506121cd6000830184611f78565b92915050565b60006020820190506121e86000830184611fa7565b92915050565b60006121f8612209565b90506122048282612387565b919050565b6000604051905090565b600067ffffffffffffffff82111561222e5761222d61248e565b5b612237826124d1565b9050602081019050919050565b600081519050919050565b600082825260208201905092915050565b600081905092915050565b600061227682612309565b915061228183612309565b9250827fffffffffffffffffffffffffffffffffffffffffffffffffffffffffffffffff038211156122b6576122b5612401565b5b828201905092915050565b60006122cc826122e9565b9050919050565b60008115159050919050565b6000819050919050565b600073ffffffffffffffffffffffffffffffffffffffff82169050919050565b6000819050919050565b82818337600083830152505050565b60005b83811015612340578082015181840152602081019050612325565b8381111561234f576000848401525b50505050565b6000600282049050600182168061236d57607f821691505b6020821081141561238157612380612430565b5b50919050565b612390826124d1565b810181811067ffffffffffffffff821117156123af576123ae61248e565b5b80604052505050565b60006123c382612309565b91507fffffffffffffffffffffffffffffffffffffffffffffffffffffffffffffffff8214156123f6576123f5612401565b5b600182019050919050565b7f4e487b7100000000000000000000000000000000000000000000000000000000600052601160045260246000fd5b7f4e487b7100000000000000000000000000000000000000000000000000000000600052602260045260246000fd5b7f4e487b7100000000000000000000000000000000000000000000000000000000600052603260045260246000fd5b7f4e487b7100000000000000000000000000000000000000000000000000000000600052604160045260246000fd5b600080fd5b600080fd5b600080fd5b600080fd5b6000601f19601f8301169050919050565b7f596f7520617265206e6f7420746865206f776e6572206f66207468697320696460008201527f656e746974790000000000000000000000000000000000000000000000000000602082015250565b7f4f6e6c7920616c7068616e756d65726963206368617261637465727320616e6460008201527f20616e20756e64657273636f726520616c6c6f77656400000000000000000000602082015250565b7f54686973206964656e746974792068617320616c7265616479206265656e207260008201527f6567697374657265640000000000000000000000000000000000000000000000602082015250565b7f4f776e657220616c72656164792068617320612068616e646c652e0000000000600082015250565b7f4163636573732064656e69656400000000000000000000000000000000000000600082015250565b7f43616e2774207472616e73666572206f776e65727368697020746f2073616d6560008201527f2061646472657373000000000000000000000000000000000000000000000000602082015250565b7f43616e2774207472616e73666572206f776e65727368697020746f206164647260008201527f6573732030000000000000000000000000000000000000000000000000000000602082015250565b6126c8816122c1565b81146126d357600080fd5b50565b6126df816122df565b81146126ea57600080fd5b50565b6126f681612309565b811461270157600080fd5b5056fea26469706673582212204e70c8a6d84addfc40d8d81c065115d9f78a84575533647495240f7c57f672a564736f6c63430008070033",
  "linkReferences": {},
  "deployedLinkReferences": {}
}