{
  "_format": "hh-sol-artifact-1",
  "contractName": "StorageProviderRegistry",
  "sourceName": "contracts/StorageProviderRegistry.sol",
  "abi": [
    {
      "inputs": [],
      "stateMutability": "nonpayable",
      "type": "constructor"
    },
    {
      "anonymous": false,
      "inputs": [
        {
          "indexed": false,
          "internalType": "address",
          "name": "id",
          "type": "address"
        },
        {
          "indexed": false,
          "internalType": "string",
          "name": "connection",
          "type": "string"
        },
        {
          "indexed": false,
          "internalType": "uint256",
          "name": "collateral",
          "type": "uint256"
        },
        {
          "indexed": false,
          "internalType": "uint256",
          "name": "collateralLockPeriod",
          "type": "uint256"
        },
        {
          "indexed": false,
          "internalType": "uint256",
          "name": "costPerKb",
          "type": "uint256"
        }
      ],
      "name": "Announcement",
      "type": "event"
    },
    {
      "inputs": [
        {
          "internalType": "string",
          "name": "connection",
          "type": "string"
        },
        {
          "internalType": "uint256",
          "name": "collateralLockPeriod",
          "type": "uint256"
        },
        {
          "internalType": "uint256",
          "name": "costPerKb",
          "type": "uint256"
        }
      ],
      "name": "announce",
      "outputs": [],
      "stateMutability": "payable",
      "type": "function"
    },
    {
      "inputs": [],
      "name": "cheapestProvider",
      "outputs": [
        {
          "internalType": "address",
          "name": "",
          "type": "address"
        }
      ],
      "stateMutability": "view",
      "type": "function"
    },
    {
      "inputs": [],
      "name": "getAllProviderIds",
      "outputs": [
        {
          "internalType": "address[]",
          "name": "",
          "type": "address[]"
        }
      ],
      "stateMutability": "view",
      "type": "function"
    },
    {
      "inputs": [],
      "name": "getCheapestProvider",
      "outputs": [
        {
          "internalType": "address",
          "name": "result",
          "type": "address"
        }
      ],
      "stateMutability": "view",
      "type": "function"
    },
    {
      "inputs": [
        {
          "internalType": "address",
          "name": "providerId",
          "type": "address"
        }
      ],
      "name": "getProvider",
      "outputs": [
        {
          "internalType": "string",
          "name": "connection",
          "type": "string"
        },
        {
          "internalType": "uint256",
          "name": "costPerKb",
          "type": "uint256"
        }
      ],
      "stateMutability": "view",
      "type": "function"
    },
    {
      "inputs": [
        {
          "internalType": "uint256",
          "name": "",
          "type": "uint256"
        }
      ],
      "name": "providerIds",
      "outputs": [
        {
          "internalType": "address",
          "name": "",
          "type": "address"
        }
      ],
      "stateMutability": "view",
      "type": "function"
    },
    {
      "inputs": [
        {
          "internalType": "address",
          "name": "",
          "type": "address"
        }
      ],
      "name": "providers",
      "outputs": [
        {
          "internalType": "address",
          "name": "id",
          "type": "address"
        },
        {
          "internalType": "string",
          "name": "connection",
          "type": "string"
        },
        {
          "internalType": "uint256",
          "name": "announcedAt",
          "type": "uint256"
        },
        {
          "internalType": "address",
          "name": "announcedBy",
          "type": "address"
        },
        {
          "internalType": "uint256",
          "name": "collateral",
          "type": "uint256"
        },
        {
          "internalType": "uint256",
          "name": "collateralLockPeriod",
          "type": "uint256"
        },
        {
          "internalType": "uint256",
          "name": "costPerKb",
          "type": "uint256"
        }
      ],
      "stateMutability": "view",
      "type": "function"
    }
  ],
  "bytecode": "0x60806040523480156200001157600080fd5b506040518060e00160405280733c903addcc954b318a5077d0f7bce44a7b9c95b173ffffffffffffffffffffffffffffffffffffffff1681526020016040518060800160405280604681526020016200160360469139815260200163602e4fcf81526020013373ffffffffffffffffffffffffffffffffffffffff168152602001603281526020016101f48152602001600581525060026000733c903addcc954b318a5077d0f7bce44a7b9c95b173ffffffffffffffffffffffffffffffffffffffff1673ffffffffffffffffffffffffffffffffffffffff16815260200190815260200160002060008201518160000160006101000a81548173ffffffffffffffffffffffffffffffffffffffff021916908373ffffffffffffffffffffffffffffffffffffffff16021790555060208201518160010190805190602001906200015e929190620002a2565b506040820151816002015560608201518160030160006101000a81548173ffffffffffffffffffffffffffffffffffffffff021916908373ffffffffffffffffffffffffffffffffffffffff1602179055506080820151816004015560a0820151816005015560c08201518160060155905050733c903addcc954b318a5077d0f7bce44a7b9c95b16000806101000a81548173ffffffffffffffffffffffffffffffffffffffff021916908373ffffffffffffffffffffffffffffffffffffffff1602179055506001733c903addcc954b318a5077d0f7bce44a7b9c95b19080600181540180825580915050600190039060005260206000200160009091909190916101000a81548173ffffffffffffffffffffffffffffffffffffffff021916908373ffffffffffffffffffffffffffffffffffffffff160217905550620003b7565b828054620002b09062000352565b90600052602060002090601f016020900481019282620002d4576000855562000320565b82601f10620002ef57805160ff191683800117855562000320565b8280016001018555821562000320579182015b828111156200031f57825182559160200191906001019062000302565b5b5090506200032f919062000333565b5090565b5b808211156200034e57600081600090555060010162000334565b5090565b600060028204905060018216806200036b57607f821691505b6020821081141562000382576200038162000388565b5b50919050565b7f4e487b7100000000000000000000000000000000000000000000000000000000600052602260045260246000fd5b61123c80620003c76000396000f3fe6080604052600436106100705760003560e01c806355f21eb71161004e57806355f21eb71461011157806376f301741461014f57806379e1df381461017a578063bcedc0df146101a557610070565b80630787bc27146100755780631d8856d0146100b85780632c18e9a5146100d4575b600080fd5b34801561008157600080fd5b5061009c60048036038101906100979190610bf6565b6101d0565b6040516100af9796959493929190610dd9565b60405180910390f35b6100d260048036038101906100cd9190610c23565b6102da565b005b3480156100e057600080fd5b506100fb60048036038101906100f69190610c92565b61086e565b6040516101089190610dbe565b60405180910390f35b34801561011d57600080fd5b5061013860048036038101906101339190610bf6565b6108ad565b604051610146929190610ecb565b60405180910390f35b34801561015b57600080fd5b506101646109c8565b6040516101719190610ea9565b60405180910390f35b34801561018657600080fd5b5061018f610a56565b60405161019c9190610dbe565b60405180910390f35b3480156101b157600080fd5b506101ba610a7f565b6040516101c79190610dbe565b60405180910390f35b60026020528060005260406000206000915090508060000160009054906101000a900473ffffffffffffffffffffffffffffffffffffffff16908060010180546102199061109a565b80601f01602080910402602001604051908101604052809291908181526020018280546102459061109a565b80156102925780601f1061026757610100808354040283529160200191610292565b820191906000526020600020905b81548152906001019060200180831161027557829003601f168201915b5050505050908060020154908060030160009054906101000a900473ffffffffffffffffffffffffffffffffffffffff16908060040154908060050154908060060154905087565b600073ffffffffffffffffffffffffffffffffffffffff16600260003373ffffffffffffffffffffffffffffffffffffffff1673ffffffffffffffffffffffffffffffffffffffff16815260200190815260200160002060000160009054906101000a900473ffffffffffffffffffffffffffffffffffffffff1673ffffffffffffffffffffffffffffffffffffffff1614156103d5576001339080600181540180825580915050600190039060005260206000200160009091909190916101000a81548173ffffffffffffffffffffffffffffffffffffffff021916908373ffffffffffffffffffffffffffffffffffffffff1602179055505b6000341415610419576040517f08c379a000000000000000000000000000000000000000000000000000000000815260040161041090610efb565b60405180910390fd5b600034905060006040518060e001604052803373ffffffffffffffffffffffffffffffffffffffff1681526020018681526020014281526020013373ffffffffffffffffffffffffffffffffffffffff1681526020016104c484600260003373ffffffffffffffffffffffffffffffffffffffff1673ffffffffffffffffffffffffffffffffffffffff16815260200190815260200160002060040154610aa390919063ffffffff16565b815260200161051e86600260003373ffffffffffffffffffffffffffffffffffffffff1673ffffffffffffffffffffffffffffffffffffffff16815260200190815260200160002060050154610aa390919063ffffffff16565b815260200184815250905080600260003373ffffffffffffffffffffffffffffffffffffffff1673ffffffffffffffffffffffffffffffffffffffff16815260200190815260200160002060008201518160000160006101000a81548173ffffffffffffffffffffffffffffffffffffffff021916908373ffffffffffffffffffffffffffffffffffffffff16021790555060208201518160010190805190602001906105cc929190610ab9565b506040820151816002015560608201518160030160006101000a81548173ffffffffffffffffffffffffffffffffffffffff021916908373ffffffffffffffffffffffffffffffffffffffff1602179055506080820151816004015560a0820151816005015560c08201518160060155905050600073ffffffffffffffffffffffffffffffffffffffff1660008054906101000a900473ffffffffffffffffffffffffffffffffffffffff1673ffffffffffffffffffffffffffffffffffffffff1614156106d557336000806101000a81548173ffffffffffffffffffffffffffffffffffffffff021916908373ffffffffffffffffffffffffffffffffffffffff1602179055505b600073ffffffffffffffffffffffffffffffffffffffff1660008054906101000a900473ffffffffffffffffffffffffffffffffffffffff1673ffffffffffffffffffffffffffffffffffffffff16141580156107d65750600260008060009054906101000a900473ffffffffffffffffffffffffffffffffffffffff1673ffffffffffffffffffffffffffffffffffffffff1673ffffffffffffffffffffffffffffffffffffffff16815260200190815260200160002060040154600260003373ffffffffffffffffffffffffffffffffffffffff1673ffffffffffffffffffffffffffffffffffffffff16815260200190815260200160002060040154105b1561081c57336000806101000a81548173ffffffffffffffffffffffffffffffffffffffff021916908373ffffffffffffffffffffffffffffffffffffffff1602179055505b7f58b76626f3b68cd0e86a7e06e24e9b8ac84d06a125542b3d4e1b9f6bad11a0ab338683608001518460a001518560c0015160405161085f959493929190610e4f565b60405180910390a15050505050565b6001818154811061087e57600080fd5b906000526020600020016000915054906101000a900473ffffffffffffffffffffffffffffffffffffffff1681565b60606000600260008473ffffffffffffffffffffffffffffffffffffffff1673ffffffffffffffffffffffffffffffffffffffff16815260200190815260200160002060010180546108fe9061109a565b80601f016020809104026020016040519081016040528092919081815260200182805461092a9061109a565b80156109775780601f1061094c57610100808354040283529160200191610977565b820191906000526020600020905b81548152906001019060200180831161095a57829003601f168201915b50505050509150600260008473ffffffffffffffffffffffffffffffffffffffff1673ffffffffffffffffffffffffffffffffffffffff168152602001908152602001600020600601549050915091565b60606001805480602002602001604051908101604052809291908181526020018280548015610a4c57602002820191906000526020600020905b8160009054906101000a900473ffffffffffffffffffffffffffffffffffffffff1673ffffffffffffffffffffffffffffffffffffffff1681526020019060010190808311610a02575b5050505050905090565b60008060009054906101000a900473ffffffffffffffffffffffffffffffffffffffff16905090565b60008054906101000a900473ffffffffffffffffffffffffffffffffffffffff1681565b60008183610ab19190610fc6565b905092915050565b828054610ac59061109a565b90600052602060002090601f016020900481019282610ae75760008555610b2e565b82601f10610b0057805160ff1916838001178555610b2e565b82800160010185558215610b2e579182015b82811115610b2d578251825591602001919060010190610b12565b5b509050610b3b9190610b3f565b5090565b5b80821115610b58576000816000905550600101610b40565b5090565b6000610b6f610b6a84610f40565b610f1b565b905082815260208101848484011115610b8b57610b8a61118f565b5b610b96848285611058565b509392505050565b600081359050610bad816111d8565b92915050565b600082601f830112610bc857610bc761118a565b5b8135610bd8848260208601610b5c565b91505092915050565b600081359050610bf0816111ef565b92915050565b600060208284031215610c0c57610c0b611199565b5b6000610c1a84828501610b9e565b91505092915050565b600080600060608486031215610c3c57610c3b611199565b5b600084013567ffffffffffffffff811115610c5a57610c59611194565b5b610c6686828701610bb3565b9350506020610c7786828701610be1565b9250506040610c8886828701610be1565b9150509250925092565b600060208284031215610ca857610ca7611199565b5b6000610cb684828501610be1565b91505092915050565b6000610ccb8383610cd7565b60208301905092915050565b610ce08161101c565b82525050565b610cef8161101c565b82525050565b6000610d0082610f81565b610d0a8185610fa4565b9350610d1583610f71565b8060005b83811015610d46578151610d2d8882610cbf565b9750610d3883610f97565b925050600181019050610d19565b5085935050505092915050565b6000610d5e82610f8c565b610d688185610fb5565b9350610d78818560208601611067565b610d818161119e565b840191505092915050565b6000610d99601683610fb5565b9150610da4826111af565b602082019050919050565b610db88161104e565b82525050565b6000602082019050610dd36000830184610ce6565b92915050565b600060e082019050610dee600083018a610ce6565b8181036020830152610e008189610d53565b9050610e0f6040830188610daf565b610e1c6060830187610ce6565b610e296080830186610daf565b610e3660a0830185610daf565b610e4360c0830184610daf565b98975050505050505050565b600060a082019050610e646000830188610ce6565b8181036020830152610e768187610d53565b9050610e856040830186610daf565b610e926060830185610daf565b610e9f6080830184610daf565b9695505050505050565b60006020820190508181036000830152610ec38184610cf5565b905092915050565b60006040820190508181036000830152610ee58185610d53565b9050610ef46020830184610daf565b9392505050565b60006020820190508181036000830152610f1481610d8c565b9050919050565b6000610f25610f36565b9050610f3182826110cc565b919050565b6000604051905090565b600067ffffffffffffffff821115610f5b57610f5a61115b565b5b610f648261119e565b9050602081019050919050565b6000819050602082019050919050565b600081519050919050565b600081519050919050565b6000602082019050919050565b600082825260208201905092915050565b600082825260208201905092915050565b6000610fd18261104e565b9150610fdc8361104e565b9250827fffffffffffffffffffffffffffffffffffffffffffffffffffffffffffffffff03821115611011576110106110fd565b5b828201905092915050565b60006110278261102e565b9050919050565b600073ffffffffffffffffffffffffffffffffffffffff82169050919050565b6000819050919050565b82818337600083830152505050565b60005b8381101561108557808201518184015260208101905061106a565b83811115611094576000848401525b50505050565b600060028204905060018216806110b257607f821691505b602082108114156110c6576110c561112c565b5b50919050565b6110d58261119e565b810181811067ffffffffffffffff821117156110f4576110f361115b565b5b80604052505050565b7f4e487b7100000000000000000000000000000000000000000000000000000000600052601160045260246000fd5b7f4e487b7100000000000000000000000000000000000000000000000000000000600052602260045260246000fd5b7f4e487b7100000000000000000000000000000000000000000000000000000000600052604160045260246000fd5b600080fd5b600080fd5b600080fd5b600080fd5b6000601f19601f8301169050919050565b7f4e6f20636f6c6c61746572616c20737570706c69656400000000000000000000600082015250565b6111e18161101c565b81146111ec57600080fd5b50565b6111f88161104e565b811461120357600080fd5b5056fea264697066735822122081c72d4d4a981bca147bda2d7e9d07061027df9e528f5a6dd71d3bb88ece86e764736f6c63430008070033687474703a2f2f73746f726167655f70726f76696465723a393638352f2333633930336164646363393534623331386135303737643066376263653434613762396339356231",
  "linkReferences": {},
  "deployedLinkReferences": {}
}