{
  "_format": "hh-sol-artifact-1",
  "contractName": "Why",
  "sourceName": "contracts/Why.sol",
  "abi": [
    {
      "inputs": [],
      "stateMutability": "nonpayable",
      "type": "constructor"
    },
    {
      "inputs": [
        {
          "internalType": "uint256",
          "name": "valueId",
          "type": "uint256"
        }
      ],
      "name": "getValue",
      "outputs": [
        {
          "internalType": "string",
          "name": "",
          "type": "string"
        }
      ],
      "stateMutability": "view",
      "type": "function"
    },
    {
      "inputs": [],
      "name": "getValues",
      "outputs": [
        {
          "internalType": "string[]",
          "name": "",
          "type": "string[]"
        }
      ],
      "stateMutability": "view",
      "type": "function"
    },
    {
      "inputs": [],
      "name": "pay",
      "outputs": [],
      "stateMutability": "payable",
      "type": "function"
    },
    {
      "inputs": [
        {
          "internalType": "string",
          "name": "value",
          "type": "string"
        }
      ],
      "name": "storeValue",
      "outputs": [],
      "stateMutability": "nonpayable",
      "type": "function"
    },
    {
      "inputs": [
        {
          "internalType": "uint256",
          "name": "",
          "type": "uint256"
        }
      ],
      "name": "values",
      "outputs": [
        {
          "internalType": "string",
          "name": "",
          "type": "string"
        }
      ],
      "stateMutability": "view",
      "type": "function"
    }
  ],
  "bytecode": "0x608060405234801561001057600080fd5b5061063a806100206000396000f3fe60806040526004361061005a5760003560e01c80631b9265b8116100435780631b9265b8146100b757806340b8d4be146100b95780635e383d21146100d957600080fd5b80630ff4c9161461005f57806319eb4a9014610095575b600080fd5b34801561006b57600080fd5b5061007f61007a3660046104bb565b6100f9565b60405161008c9190610583565b60405180910390f35b3480156100a157600080fd5b506100aa6101a8565b60405161008c9190610521565b005b3480156100c557600080fd5b506100b76100d436600461040a565b610281565b3480156100e557600080fd5b5061007f6100f43660046104bb565b6102c5565b60606000828154811061010e5761010e6105d8565b9060005260206000200180546101239061059d565b80601f016020809104026020016040519081016040528092919081815260200182805461014f9061059d565b801561019c5780601f106101715761010080835404028352916020019161019c565b820191906000526020600020905b81548152906001019060200180831161017f57829003601f168201915b50505050509050919050565b60606000805480602002602001604051908101604052809291908181526020016000905b828210156102785783829060005260206000200180546101eb9061059d565b80601f01602080910402602001604051908101604052809291908181526020018280546102179061059d565b80156102645780601f1061023957610100808354040283529160200191610264565b820191906000526020600020905b81548152906001019060200180831161024757829003601f168201915b5050505050815260200190600101906101cc565b50505050905090565b6000805460018101825590805281516102c1917f290decd9548b62a8d60345a988386fc84ba6bc95484008f6362f93160ef3e56301906020840190610371565b5050565b600081815481106102d557600080fd5b9060005260206000200160009150905080546102f09061059d565b80601f016020809104026020016040519081016040528092919081815260200182805461031c9061059d565b80156103695780601f1061033e57610100808354040283529160200191610369565b820191906000526020600020905b81548152906001019060200180831161034c57829003601f168201915b505050505081565b82805461037d9061059d565b90600052602060002090601f01602090048101928261039f57600085556103e5565b82601f106103b857805160ff19168380011785556103e5565b828001600101855582156103e5579182015b828111156103e55782518255916020019190600101906103ca565b506103f19291506103f5565b5090565b5b808211156103f157600081556001016103f6565b60006020828403121561041c57600080fd5b813567ffffffffffffffff8082111561043457600080fd5b818401915084601f83011261044857600080fd5b81358181111561045a5761045a6105ee565b604051601f8201601f19908116603f01168101908382118183101715610482576104826105ee565b8160405282815287602084870101111561049b57600080fd5b826020860160208301376000928101602001929092525095945050505050565b6000602082840312156104cd57600080fd5b5035919050565b6000815180845260005b818110156104fa576020818501810151868301820152016104de565b8181111561050c576000602083870101525b50601f01601f19169290920160200192915050565b6000602080830181845280855180835260408601915060408160051b870101925083870160005b8281101561057657603f198886030184526105648583516104d4565b94509285019290850190600101610548565b5092979650505050505050565b60208152600061059660208301846104d4565b9392505050565b600181811c908216806105b157607f821691505b602082108114156105d257634e487b7160e01b600052602260045260246000fd5b50919050565b634e487b7160e01b600052603260045260246000fd5b634e487b7160e01b600052604160045260246000fdfea26469706673582212202a0b51b07d1025f2d0667517196ee36ba7b9711b08109353c1d1ed940c9d0ee464736f6c63430008070033",
  "linkReferences": {},
  "deployedLinkReferences": {}
}